:020000040800F2
:10000000C00F002045010008E12A0008E32A00088B
:10001000E72A0008EB2A0008EF2A00080000000089
:10002000000000000000000000000000F32A0008AB
:10003000F52A000800000000F72A0008F92A000845
:100040005F0100085F0100085F0100085F01000810
:100050005F0100085F0100085F0100085F01000800
:100060005F0100085F0100085F0100085F010008F0
:100070005F0100085F0100085F0100085F010008E0
:100080005F0100085F0100085F0100085F010008D0
:100090005F0100085F0100085F0100085F010008C0
:1000A0005F0100085F0100085F0100085F010008B0
:1000B0005F0100085F0100082B3600085F0100089F
:1000C0005F0100085F0100085F0100085F01000890
:1000D0005F0100085F010008DF330008B93F000836
:1000E0005F0100085F0100085F0100085F01000870
:1000F0005F0100085F0100085F0100085F01000860
:100100005F0100085F0100085F0100085F0100084F
:100110005F0100085F0100085F0100085F0100083F
:100120005F0100085F0100085F0100085F0100082F
:10013000DFF80CD004F090FB00480047A12600082F
:10014000C00F00200648804706480047FEE7FEE74C
:10015000FEE7FEE7FEE7FEE7FEE7FEE7FEE7FEE777
:1001600045020008310100080CB500200190009004
:100170006B48006840F480306949086000BF6848F7
:10018000006800F4003000900198401C0190009835
:1001900018B90198B0F5A06FF1D16148006810F46A
:1001A000003F02D00120009001E000200090009864
:1001B000012842D15B48006840F0100059490860AE
:1001C0000846006820F0030008600846006840F018
:1001D000020008605248406851494860084640683B
:1001E00048600846406840F48060486008464068BF
:1001F00020F47C1048600846406840F4E8104860ED
:100200000846006840F08070086000BF44480068FD
:1002100010F0007FFAD04248406820F003004049C7
:1002200048600846406840F00200486000BF3C4813
:10023000406800F00C000828F9D10CBD10B5FFF79C
:1002400093FF10BD10B53648006840F001003449F6
:10025000086008464068344908403149486008460B
:100260000068324908402E4908600846006820F4BA
:10027000802008600846406820F4FE0048604FF483
:100280001F008860FFF7DAFF4FF000602849086020
:1002900010BD10B5002100200022214B5B6803F047
:1002A0000C0121B1042906D0082928D107E0214BEF
:1002B000214C236027E01F4B1F4C236023E0184B89
:1002C0005B6803F47010164B5B6803F48032022302
:1002D00003EB904022B9194B4343174C23600DE0C8
:1002E0000F4B5B6813F4003F04D0144B4343124C94
:1002F000236003E00F4B43430F4C236003E00D4B9F
:100300000D4C236000BF00BF054B5B68C3F30313B4
:100310000B4CE15C084B1B68CB40074C236010BDC5
:1003200000100240002002400000FFF8FFFFF6FE30
:1003300008ED00E000127A000000002000093D00F6
:100340000400002031490143314A1160704770B503
:10035000002100230F22C4780CB32D4C246804F430
:10036000E064C4F5E064210AC1F10403CA404478A2
:1003700004FA03F18478144021430901254C0678DE
:10038000A155047804F01F050124AC4005786D11D7
:100390004FF0E02606EB8505C5F8004109E004783A
:1003A00004F01F050124AC401B4D0678761145F87A
:1003B000264070BD194A0A400243154B1B1F1A60A4
:1003C000704739B1124A121D12680243104B1B1DAF
:1003D0001A6006E00E4A121D126882430C4B1B1D68
:1003E0001A607047042808D14FF0E021096941F0F4
:1003F00004014FF0E022116107E04FF0E0210969AC
:1004000021F004014FF0E022116170470000FA056D
:100410000CED00E000E400E080E100E080FFFF1F61
:1004200001684FF6FE7211400160002101604160D9
:100430008160C1608C49884208D18B49083949687C
:1004400041F00F01884A083A51608AE08649143128
:10045000884208D184490839496841F0F001824A4C
:10046000083A51607DE080492831884208D17E49B0
:100470000839496841F470617B4A083A516070E07C
:1004800079493C31884208D177490839496841F4B3
:100490007041754A083A516063E0734950318842AF
:1004A00008D171490839496841F470216E4A083A07
:1004B000516056E06C496431884208D16A49083974
:1004C000496841F47001684A083A516049E0664958
:1004D0007831884208D164490839496841F070612F
:1004E000614A083A51603CE06049884206D1011FE8
:1004F000096841F00F01021F116032E05B491431BD
:10050000884208D15949091F096841F0F001574A4A
:10051000121F116025E055492831884208D15349FE
:10052000091F096841F47061504A121F116018E0F8
:100530004E493C31884208D14C49091F096841F4B1
:1005400070414A4A121F11600BE0484950318842FD
:1005500007D14649091F096841F47021434A121F17
:100560001160704710B50022026847F6F0739A4395
:100570000C6A8B6823430C6923434C6923438C69C1
:100580002343CC6923434C6A23438C6A23431A4395
:100590000260CB6843600B6883604B68C36010BD2A
:1005A0000021016041608160C16001614161816140
:1005B000C161016241628162704721B1026842F00B
:1005C0000102026004E002684FF6FE731A40026006
:1005D00070471AB103680B43036002E003688B4362
:1005E00003607047416070470146486880B27047B9
:1005F00001460020002211F0805F03D01B4B083B16
:100600001A6802E0184B083B1A680A4201D0012020
:1006100000E00020704710F0805F03D01349091FED
:10062000086002E010490839486070470146002020
:10063000002211F0805F03D00C4B083B1A6802E0E7
:10064000094B083B1A680A4201D0012000E0002053
:10065000704710F0805F03D00449091F086002E072
:100660000149083948607047080002400804024008
:1006700010B50446CA48844208D10121042000F084
:1006800029FD0021042000F025FD46E0C5488442F4
:1006900008D10121082000F01DFD0021082000F0F4
:1006A00019FD3AE0C048844208D10121102000F031
:1006B00011FD0021102000F00DFD2EE0BB4884420A
:1006C00008D10121202000F005FD0021202000F0AC
:1006D00001FD22E0B648844208D10121402000F00B
:1006E000F9FC0021402000F0F5FC16E0B1488442FE
:1006F00008D10121802000F0EDFC0021802000F0D5
:10070000E9FC0AE0AC48844207D10121801500F0E1
:10071000E1FC0021A01500F0DDFC10BD10B50121A9
:10072000084600F0D7FC0021012000F0D3FC10BDEA
:100730002DE9F04102460025002600200023002478
:10074000002791F803C00CF00F0591F803C01CF0CE
:10075000100F03D091F802C04CEA050591F800C0D3
:10076000BCF1000F31D0146800202BE04FF0010CD9
:100770000CFA00F3B1F800C00CEA03069E4220D147
:1007800083004FF00F0C0CFA03F7BC4305FA03FC8F
:100790004CEA040491F803C0BCF1280F06D14FF0D5
:1007A000010C0CFA00FCC2F814C00AE091F803C076
:1007B000BCF1480F05D14FF0010C0CFA00FCC2F857
:1007C00010C0401C0828D1D31460B1F800C0BCF19F
:1007D000FF0F34DD546800202EE000F1080C4FF0CC
:1007E000010808FA0CF3B1F800C00CEA03069E42B7
:1007F00021D183004FF00F0C0CFA03F7BC4305FA2C
:1008000003FC4CEA040491F803C0BCF1280F05D1A5
:1008100000F1080C08FA0CF8C2F8148091F803C033
:10082000BCF1480F07D100F1080C4FF0010808FA9D
:100830000CF8C2F81080401C0828CED35460BDE8E4
:10084000F0814FF6FF710180022181700421C17097
:1008500070470246002093680B4201D0012000E05F
:10086000002070470146886880B270470246002029
:10087000D3680B4201D0012000E000207047014600
:10088000C86880B2704701617047416170470AB122
:10089000016100E041617047C16070474FF48032F0
:1008A0000A4382618161826182698269704702467E
:1008B0000020424B18684FF68073184040EA02103F
:1008C00008433E4B186070473D49C8617047F0B51A
:1008D0000A46002300240021002500F00046B6F15E
:1008E000004F02D1354EF16901E0344E7168C0F31A
:1008F000034583B200F44016B6F5401F08D121F03D
:1009000070612E4E766826F070662C4F7E6012E085
:1009100000F48016B6F5801F06D1032606FA05F40A
:10092000A14341F0706106E0460D360103FA06F678
:10093000B14341F0706122B1460D360103FA06F66B
:10094000314300F00046B6F1004F02D11B4EF16179
:1009500001E01A4E7160F0BD30B500228B071C0F0C
:100960000F2303FA04F2154B08338C1053F824308C
:100970009343124C08348D1044F8253023468C10D4
:1009800053F824308C07240F00FA04F423430B4C53
:1009900008348D1044F8253030BD0A49086070478E
:1009A00000080140000C014000100140001401400B
:1009B00000180140001C01400020014000000140DF
:1009C00000002042DC00204210B50446F748844273
:1009D00009D10121480500F08AFB00214FF40010E5
:1009E00000F085FB08E00121880500F080FB002174
:1009F0004FF4800000F07BFB10BD2DE9F04385B083
:100A000004460D460026B1460427DFF8A483A688D5
:100A10004FF6C0700640684600F0D5FADDF8088051
:100A2000E448B8FBF0F01FFA80F946EA0906A68010
:100A300020884FF6FE71084020800026DE49286895
:100A400088420CD828684000B8FBF0F087B2042F29
:100A500000DA04273E4309F10100208427E0E888FA
:100A6000A0F53F41FF3906D1286800EB4000B8FBF4
:100A7000F0F087B209E0286800EBC00101EB00103C
:100A8000B8FBF0F087B247F480473805000D01D17C
:100A900047F0010747F4004006434FF4967009FB06
:100AA00000F04FF47A7190FBF1F0401C2084A68393
:100AB000208840F00100208026884FF6F53006405F
:100AC000A8886989084306432680A889298908439C
:100AD000208105B0BDE8F08341F28831016000213A
:100AE00081804BF6FF71C1800021018141814FF46B
:100AF00080418181704721B1028842F00102028069
:100B000004E002884FF6FE731A400280704721B15C
:100B1000828842F40062828004E082884FF2FF7390
:100B20001A408280704721B1828842F480528280CC
:100B300004E082884EF6FF731A408280704721B12C
:100B4000028842F48072028004E002884FF6FF635C
:100B50001A400280704721B1028842F4007202807C
:100B600004E002884FF6FF531A400280704721B11B
:100B7000028842F48062028004E002884FF6FF336C
:100B80001A40028070470A46002181894FF601739E
:100B9000194002F0FE0319438181704721B1828917
:100BA00042F00102828104E082894FF6FE731A400E
:100BB0008281704721B1028842F04002028004E045
:100BC00002884FF6BF731A40028070471AB18388BB
:100BD0000B43838002E083888B43838070470182CC
:100BE00070470146088AC0B2704712B141F0010156
:100BF00002E04FF6FE7319400182704708B50246C5
:100C0000002000900092009808440090009800880E
:100C100008BD21B1028842F40042028003E002884C
:100C2000C2F30E0202807047B1F5006F04D1028852
:100C300042F40062028004E002884FF2FF731A401F
:100C400002807047B1F5005F04D1028842F400527F
:100C5000028004E002884DF6FF731A40028070475C
:100C600021B1028842F48052028004E002884EF6EC
:100C7000FF731A4002807047B1F5006F04D10288FB
:100C800042F40062028004E002884FF2FF731A40CF
:100C90000280704721B1028842F02002028004E005
:100CA00002884FF6DF731A40028070470146088BB6
:100CB0000012704721B1028842F01002028004E065
:100CC00002884FF6EF731A400280704721B90288FC
:100CD00042F08002028004E002884FF67F731A40DF
:100CE00002807047B1F5804F05D0828B4BF6FF73C1
:100CF0001A40828303E0828B42F4804282837047F1
:100D000070B502460024002500230020958A138B2D
:100D10001B0445EA030626F07F4404EA01068E42DE
:100D200001D1012000E0002070BD10B50146002077
:100D3000002300228B8A0A8B120443EA020424F067
:100D40007F4010BD0CB502460020002301930093A4
:100D500000920B0F019321F07F41019B1BB1009B7F
:100D60001433009303E0090C009B18330093009B9D
:100D70001B680B4201D0012000E000200CBD0022C6
:100D800021F07F42D3438382704730B50246002072
:100D90000023948801F0E06504EA154321F07F41C7
:100DA000948A0C420AD04BB1012008E00054004064
:100DB00000127A0040420F00A0860100002030BDE2
:100DC000002221F07F42D34383827047DD480068D0
:100DD00040F00100DB49086008464068DA490840F5
:100DE000D849486008460068D8490840D549086095
:100DF0000846006820F4802008600846406820F417
:100E0000FE0048604FF41F0088607047CD490968B4
:100E100021F48031CB4A11601146096821F4802108
:100E20001160B0F5803F03D0B0F5802F0ED106E001
:100E3000C449096841F48031C24A116007E0C149E0
:100E4000096841F4A021BF4A116000E000BF00BF63
:100E5000704710B501460022002300204A11012AE4
:100E600002D1B84C236806E0022A02D1B54C236AAD
:100E700001E0B44C636A01F01F02012494401C425B
:100E800001D0012000E0002010BD38B50020009006
:100E90000024002500BF3120FFF7DBFF0546009846
:100EA000401C00900098B0F5A06F01D0002DF2D04A
:100EB0003120FFF7CEFF08B1012400E000242046D6
:100EC00038BD014600209F4A106820F0F80040EA33
:100ED000C100106070479E490860704702460020BC
:100EE000984B586820F47C1042EA01031843954B54
:100EF0005860704796490866704701460020914A3D
:100F0000506820F003000843506070478D484068E7
:100F100000F00C007047014600208A4A506820F01B
:100F2000F00008435060704701460020854A506831
:100F300020F4E06008435060704701460020814A79
:100F4000506820F4605040EAC1005060704729B1F9
:100F50007C4A527A02437B4B5A7204E0794A527AB5
:100F60008243784B5A7270477A490860704701464D
:100F70000020744A506820F4404008435060704795
:100F80000021754A11706F4A82F82010012802D0A2
:100F9000042808D103E001216F4A117004E0052103
:100FA0006D4A117000E000BF00BF70476B490860D8
:100FB00070476449096A0143624A11627047674990
:100FC00044390860704730B5002100220024002316
:100FD0005C4D6D6805F00C0121B1042905D008298C
:100FE00023D105E05E4D056022E05D4D05601FE008
:100FF000544D6D6805F47012524D6D6805F48034DF
:10100000022505EB92421CB9564D554305600BE095
:101010004C4D6D6815F4003F03D0524D55430560AB
:1010200002E04F4D5543056002E04D4D056000BFA5
:1010300000BF444D6D6805F0F00109094A4D6B5C35
:101040000568DD4045603F4D6D6805F4E061090AC3
:10105000454D6B5C4568DD4085603A4D6D6805F433
:101060006051C90A404D6B5C4568DD40C560354D37
:101070006D6805F44041890B3C4D6B5CC568B5FB60
:10108000F3F5056130BD29B12E4A526902432D4B5B
:101090005A6104E02B4A526982432A4B5A617047D5
:1010A00029B1284A92690243264B9A6104E0254AF5
:1010B00092698243234B9A61704729B1214AD269D0
:1010C0000243204BDA6104E01E4AD26982431D4B81
:1010D000DA61704729B11B4AD2680243194BDA60C2
:1010E00004E0184AD2688243164BDA60704729B18F
:1010F000144A12690243134B1A6104E0114A12693F
:101100008243104B1A617047144940390860704798
:101110000F49C86470470B49C87170470948406A55
:1011200040F0807007494862704701460020054A38
:1011300092680A4201D0012000E000207047014976
:1011400088727047001002400000FFF8FFFFF6FEB3
:1011500000004242D8004242201002408004424235
:1011600000127A0000093D00140000202400002035
:1011700010B50446BE48844208D101218014FFF70F
:10118000A9FF0021A014FFF7A5FF16E0B94884428B
:1011900008D101210014FFF7AAFF00212014FFF756
:1011A000A6FF0AE0B448844207D10121C013FFF72B
:1011B0009EFF0021E013FFF79AFF10BD10B500223B
:1011C000028802F441520B884C8823438C882343C5
:1011D000CC8823430C8923434C8923438C892343A4
:1011E000CC8923431A430280838B4FF2FF74234040
:1011F00083830B8A038210BD2DE9F04F85B005462D
:101200000C464FF0000902274FF000084FF0010B89
:101210000026B246A88B4FF240010840A883022066
:101220002884B5F81C90A068022801D100BF38E0DE
:10123000A08810B94FF0010B01E04FF0020B8D4870
:10124000854200D100E000BF6846FFF7BCFEDDF834
:1012500000A0E088B0F5007F0AD14FEA1A2000EB29
:1012600080004000A168B0FBF1F0401D86B20BE0A9
:101270004FEA4B10BAFBF0F000EB80004000A16891
:10128000B0FBF1F0401D86B20A20B6FBF0F606F086
:101290000108A6EB0800C0F34F074FF6FF7000EA05
:1012A0000828022F01DBFF2F02DD02274FF0000884
:1012B000E08840EA080038432884A088A1890843D0
:1012C000618808432188084340F4006040EA090926
:1012D000A5F81C9005B0BDE8F08F00210180418089
:1012E0008180C180018141818181C1810721018289
:1012F00070470021018041808180C180022181608E
:1013000000218181704721B1028842F040020280B1
:1013100004E002884FF6BF731A400280704721B183
:10132000828B42F48062828304E0828B4FF6FF332B
:101330001A408283704730B5002400230C11012528
:10134000A540ABB21AB185881D43858002E085882F
:101350009D43858030BD1AB183880B43838002E0B2
:1013600083888B43838070478181704701468889D9
:101370007047A1F57E42FF3A04D0028842F48072A1
:10138000028004E002884FF6FF631A400280704733
:1013900021B1828842F00402828004E082884FF604
:1013A000FB731A408280704702884FF2FF731A4025
:1013B000028002880A4302807047018841F480510C
:1013C0000180704721B1028842F40052028004E09B
:1013D00002884DF6FF731A400280704702460020D3
:1013E000012901D0108B00E0908A70470146088ADD
:1013F0007047B1F5804F04D1028842F480420280E8
:1014000004E002884BF6FF731A40028070470246E0
:10141000002013890B4201D0012000E0002070471A
:10142000CA4302817047F0B5024600200024002321
:10143000002501F00F070126BE40B4B20B110126B2
:101440009E40B3B2968806EA03051689264202D06A
:101450000DB1012000E00020F0BD10B5002201F028
:101460000F040123A3409AB2D343038110BD0000AF
:101470000030014000380040003C004010B50446F8
:10148000FE48844208D10121C014FFF723FE002149
:10149000E014FFF71FFEC4E0B4F1804F08D1012132
:1014A0000846FFF724FE00210120FFF720FEB8E0E8
:1014B000F348844208D101210220FFF718FE0021E1
:1014C0000220FFF714FEACE0EE48844208D101216F
:1014D0000420FFF70CFE00210420FFF708FEA0E027
:1014E000E948844208D101210820FFF700FE0021CD
:1014F0000820FFF7FCFD94E0E448844208D1012174
:101500001020FFF7F4FD00211020FFF7F0FD88E028
:10151000DF48844208D101212020FFF7E8FD0021A7
:101520002020FFF7E4FD7CE0DA48844208D1012165
:101530004014FFF7CFFD00216014FFF7CBFD70E0F2
:10154000D548844209D10121C804FFF7C3FD002119
:101550004FF40020FFF7BEFD63E0D048844209D17C
:1015600001210805FFF7B6FD00214FF48010FFF7B9
:10157000B1FD56E0CA48844209D101214805FFF770
:10158000A9FD00214FF40010FFF7A4FD49E0C54874
:10159000844208D101214020FFF7A9FD002140200D
:1015A000FFF7A5FD3DE0C048844208D1012180201D
:1015B000FFF79DFD00218020FFF799FD31E0BB483A
:1015C000844208D101218015FFF791FD0021A0156B
:1015D000FFF78DFD25E0B648844209D101210804BA
:1015E000FFF778FD00214FF48030FFF773FD18E01E
:1015F000B048844209D101214804FFF76BFD002166
:101600004FF40030FFF766FD0BE0AB48844208D191
:1016100001218804FFF75EFD00214FF48020FFF7D1
:1016200059FD10BD00220288944B98420ED0994B70
:1016300098420BD0B0F1804F08D0914B984205D022
:10164000904B984202D0904B984204D14FF68F7342
:101650001A404B881A438D4B984207D08C4B9842C6
:1016600004D04FF6FF431A40CB881A4302808B8880
:1016700083850B880385814B98420BD0854B98421C
:1016800008D08B4B984205D08A4B984202D08A4BA7
:10169000984201D10B7A038601238382704770B58B
:1016A000002400220023058C4FF6FE763540058489
:1016B000028C8388048B4FF68F752C40B51E2C400E
:1016C0000D882C43751E2A400D892A434D882A43D4
:1016D0006A4DA8420BD06F4DA84208D0744DA84265
:1016E00005D0744DA84202D0734DA84213D14FF6D5
:1016F000F7752A404D892A434FF6FB752A408D889D
:101700002A434FF6FF652B404FF6FF552B408D893E
:101710002B43CD892B4383800483CD888586028427
:1017200070BD70B5002400220023058C4FF6EF76C3
:1017300035400584028C8388048B48F6FF752C4065
:101740004FF6FF452C400D884FF6FF7606EA05253B
:101750002C434FF6DF752A400D8906EA05152A430A
:101760004D8806EA05152A43444DA84202D0494D4A
:10177000A8421DD14FF67F752A404D894FF6FF765E
:1017800006EA05152A434FF6BF752A408D8806EAFA
:1017900005152A434FF6FF352B404FF2FF752B40BE
:1017A0008D8906EA85052B43CD8906EA85052B43FD
:1017B00083800483CD880587028470BD70B50024C2
:1017C00000220023058C4FF6FF6635400584028C0D
:1017D0008388848B4FF68F752C404FF6FC752C4018
:1017E0000D882C434FF6FF552A400D894FF6FF76A2
:1017F00006EA05252A434D8806EA05252A431F4D9A
:10180000A84202D0234DA8421DD14FF2FF752A40B5
:101810004D894FF6FF7606EA05252A434FF6FF3538
:101820002A408D8806EA05252A434EF6FF752B408F
:101830004DF6FF752B408D8906EA05152B43CD89A2
:1018400006EA05152B4383808483CD88858702842F
:1018500070BD70B5002200230024058C4EF6FF7683
:1018600035400584038C8488828B48F6FF752A40B6
:101870004FF6FF452A400D8820E00000002C014073
:101880000004004000080040000C00400010004030
:101890000014004000340140004C01400050014061
:1018A0000054014000180040001C0040002000408F
:1018B0000040014000440140004801404FF6FF76DF
:1018C00006EA05252A434DF6FF752B400D8906EAE9
:1018D00005352B434D8806EA05352B43FA4DA842C2
:1018E00002D0FA4DA84208D14BF6FF752C408D89E5
:1018F0004FF6FF7606EA85152C4384808283CD88D7
:10190000A0F84050038470BD828B4FF2FF331A4021
:101910008283828B4FF6FF7303EA01231A4382838B
:101920007047F0B50C461546002200210026078CB2
:101930004EF6FF7C07EA0C070784828B018C4FF67A
:10194000FF7707EA043640F6FF473A404FF6FF7745
:1019500007EA05273A434FF6FF7707EA03373A438A
:10196000D94FB8420ED0D94FB8420BD0B0F1804F0A
:1019700008D0D74FB84205D0D64FB84202D0D64F84
:10198000B84206D14DF6FF77394046F480573943C7
:1019900005E047F6FF57394044F4805739438283C6
:1019A0000184F0BD828B4FF6F3731A408283828BE1
:1019B0000A4382837047F0B50C4615460022002189
:1019C0000026078C4FF6FF6C07EA0C070784828B12
:1019D000018C4FF6FF7707EA04264FF60C773A4062
:1019E0004FF6FF7707EA03172F433A43B64FB84243
:1019F0000ED0B64FB8420BD0B0F1804F08D0B44FE4
:101A0000B84205D0B34FB84202D0B34FB84206D166
:101A10004FF6FF57394046F48077394305E04FF2DF
:101A2000FF57394044F48077394382830184F0BD05
:101A3000028B4FF2FF331A400283028B4FF6FF7383
:101A400003EA01231A4302837047F0B50C4615469A
:101A5000002200210026078C4FF6EF7C07EA0C07D6
:101A60000784028B018C4FF6FF7707EA041640F6D5
:101A7000FF473A404FF6FF7707EA03373A434FF6FE
:101A8000FF7707EA05273A438F4FB8420ED08F4FB2
:101A9000B8420BD0B0F1804F08D08D4FB84205D07E
:101AA0008C4FB84202D08C4FB84206D14FF6DF7748
:101AB000394046F01007394305E04FF65F7739406B
:101AC00044F01007394302830184F0BD028B4FF6C6
:101AD000F3731A400283028B0A4302837047F0B506
:101AE0000C46154600220021068C4FF6FE773E403C
:101AF0000684028B018C4FF60C7632407E1C06EA7F
:101B000003162E433243704EB0420ED06F4EB04299
:101B10000BD0B0F1804F08D06D4EB04205D06D4E65
:101B2000B04202D06C4EB04206D14FF6FD76314045
:101B300044F00106314305E04FF6F576314044F0BC
:101B40000106314302830184F0BD70B505460C46A1
:101B50005D4885420ED05D4885420BD0B5F1804F7F
:101B600008D05B48854205D05A48854202D05A4881
:101B7000854200D100E000BF208850B92389A288A7
:101B800061882846FFF7ABFFE1882846FFF79EFFF4
:101B900025E0208804280AD12389A2886188284664
:101BA000FFF753FFE1882846FFF742FF17E0208840
:101BB00008280AD12389A28861882846FFF7FBFEFE
:101BC000E1882846FFF7EEFE09E02389A2886188B4
:101BD0002846FFF7A6FEE1882846FFF795FE70BD70
:101BE0002DE9F04105460C4600260127608808B91A
:101BF000022600E00026A088012801D1022700E08B
:101C000001272088A0B92389A28861882846FFF788
:101C100066FFE1882846FFF759FF23893A46314697
:101C20002846FFF712FFE1882846FFF701FF13E07F
:101C30002389A28861882846FFF707FFE1882846A4
:101C4000FFF7F6FE23893A4631462846FFF747FF5D
:101C5000E1882846FFF73AFFBDE8F0810A884B8803
:101C60001A438B881A43CB881A430B891A434B8932
:101C70001A438B891A43A0F8442070474FF6FF712E
:101C8000818000210180C180418001727047002164
:101C9000018041808180C180018141818181C18138
:101CA0007047002101804180012181800021C18095
:101CB000018170470021018041808180C1800181C4
:101CC0004181818170470000002C014000340140B7
:101CD0000004004000080040000C004021B10288D0
:101CE00042F00102028004E002884FF6FE731A40BF
:101CF0000280704731B1B0F8442042F40042A0F8AD
:101D0000442005E0B0F84420C2F30E02A0F84420BD
:101D100070471AB183890B43838102E083898B4327
:101D2000838170478182704741EA0203A0F84830FE
:101D300070471AB183890B43838102E083898B4307
:101D40008381704701894FF6F87211400181704715
:101D50000A46002101894FF68F7319401143018112
:101D6000704730B504460D4629462046FFF7F0FF80
:101D7000208940F00700208130BD2DE9F041044664
:101D80000D4616461F46602D06D13B4601223146C0
:101D90002046FFF75AFE05E03B4601223146204629
:101DA000FFF79DFE29462046FFF7D2FF208940F02D
:101DB00007002081BDE8F08130B50C460021018983
:101DC000C9B24FF6FF7505EA03251543254329439C
:101DD000018130BD2DE9F04105460E461746984673
:101DE000002443463A4631462846FFF7E5FF2C8952
:101DF0004FF6F870044044F007044FF68F7004402B
:101E000044F070042C81BDE8F081F0B504460D4625
:101E100016461F463B46324629462046FFF7CCFF72
:101E2000208940F480402081F0BD01858282704786
:101E30000A46002101884FF68F7319401143018033
:101E40007047F0B50C4615461E46002100220023BF
:101E50000189028B038C4FF6F877394021434FF606
:101E6000FC473A4040F201173A434FF6DD773B40DA
:101E70004FF6FF7707EA06172F433B4301810283A2
:101E80000384F0BD0A460021018B4FF68F73194081
:101E90001143018370470A460021018B48F6FF7306
:101EA00019404FF6FF7303EA022319430183704779
:101EB0000A460021818B4FF68F73194011438183AD
:101EC00070470A460021818B48F6FF7319404FF690
:101ED000FF7303EA022319438183704721B102880B
:101EE00042F08002028004E002884FF67F731A40BD
:101EF0000280704721B1828842F00402828004E0AF
:101F000082884FF6FB731A408280704721B1828825
:101F100042F00802828004E082884FF6F7731A408C
:101F20008280704721B1828842F00102828004E001
:101F300082884FF6FE731A40828070470A4600215D
:101F4000018B4FF6F77319401143018370470A461E
:101F50000021018B4FF2FF7319404FF6FF7303EA24
:101F600002231943018370470A460021818B4FF6F3
:101F7000F77319401143818370470A460021818B12
:101F80004FF2FF7319404FF6FF7303EA0223194320
:101F9000818370470A460021018B4FF6FB7319407D
:101FA0001143018370470A460021018B4FF6FF332E
:101FB00019404FF6FF7303EA022319430183704768
:101FC0000A460021818B4FF6FB7319401143818330
:101FD00070470A460021818B4FF6FF3319404FF6B8
:101FE000FF7303EA02231943818370470A460021E5
:101FF000018B4FF67F7319401143018370470A46E6
:102000000021018BC1F30E014FF6FF7303EA022397
:102010001943018370470A460021818B4FF67F7375
:1020200019401143818370470A460021818BC1F317
:102030000E014FF6FF7303EA0223194381837047B1
:102040000A460021018C4FF6FD73194011430184AB
:1020500070470A460021018C4FF6F773194011436F
:10206000018470470A460021018C4FF6DF73194046
:102070004FF6FF7303EA02131943018470470A46BF
:102080000021018C4FF67F7319404FF6FF7303EA6E
:1020900002131943018470470A460021018C4FF650
:1020A000FF5319404FF6FF7303EA022319430184DB
:1020B00070470A460021018C4FF2FF7319404FF61A
:1020C000FF7303EA02231943018470470A46002183
:1020D000018C4DF6FF7319404FF6FF7303EA02338C
:1020E00019430184704730B5002301248C40A3B20A
:1020F000048C9C430484048C02FA01F5ADB22C4399
:10210000048430BD30B5002304248C40A3B2048C79
:102110009C430484048C02FA01F5ADB22C43048480
:1021200030BD70B503460020002418461830012544
:102130008D40ACB21D8CA5431D8409B1082909D17D
:1021400000EB6100056825F0700505600568154322
:1021500005600EE00D1FC5F34E052844056825F403
:10216000E045056005684FF6FF7606EA022635432E
:10217000056070BD21B1028842F00202028004E0D5
:1021800002884FF6FD731A400280704721B1028821
:1021900042F00402028004E002884FF6FB731A400A
:1021A0000280704721B1828842F08002828004E080
:1021B00082884FF67F731A408280704702884FF6FC
:1021C000F7731A40028002880A43028070478288AF
:1021D0004FF68F731A40828082880A43828070474C
:1021E00002894FF6F8731A40028102890A4302817C
:1021F000704702894FF67F731A40028102890A43B1
:10220000028170478184704781857047818670475D
:102210000187704781877047A0F840107047028897
:102220004FF6FF431A40028002880A43028070473B
:102230000146888E70470146088F70470146888F97
:1022400070470146B1F8400070470146888C7047DE
:102250000146088D704702460020138A0B4201D0C8
:10226000012000E000207047CA430282704730B569
:102270000246002000230024158A05EA01039589FF
:1022800005EA010413B10CB1012000E0002030BDCB
:10229000CA4302827047000010B50446FB488442DE
:1022A00009D101218803FEF715FF00214FF480407A
:1022B000FEF710FF32E0F648844209D101214804BC
:1022C000FEF715FF00214FF40030FEF710FF25E068
:1022D000F048844209D101218804FEF708FF00215B
:1022E0004FF48020FEF703FF18E0EB48844209D149
:1022F0000121C804FEF7FBFE00214FF40020FEF789
:10230000F6FE0BE0E548844208D101210805FEF7FE
:10231000EEFE00214FF48010FEF7E9FE10BD2DE91E
:10232000F04786B005460E460024A24600BFA146EF
:102330000027B08900B100BF2F462C8A4CF6FF70F1
:102340000440F08804432C82AC894EF6F31004401C
:10235000B08831890843718908430443AC81AC8A51
:102360004FF6FF400440B0890443AC8201A8FEF759
:102370002AFEC648874202D1DDF810A001E0DDF850
:102380000CA0A88910F4004F08D00AEBCA0000EB9B
:102390000A1031684900B0FBF1F807E00AEBCA0007
:1023A00000EB0A1031688900B0FBF1F86420B8FB3B
:1023B000F0F004012009642101FB1089A88910F4C0
:1023C000004F08D0322000EBC900B0FBF1F000F064
:1023D0000700044308E0322000EB09106421B0FB41
:1023E000F1F000F00F0004432C8106B0BDE8F08747
:1023F0004FF41651016000218180C18001810C21C0
:10240000418100218181704710B502460020108A69
:102410004FF2FF0318400B884C8823438C882343DA
:10242000CC8823431843108210BD002101804180D5
:102430008180C180704721B1828942F4005282813B
:1024400004E082894DF6FF731A4082817047F0B52F
:1024500003460024002600250020A1F510676A3FEE
:1024600000D100BF1846C1F3421401F01F06012736
:1024700007FA06F5012C01D10C3004E0022C01D141
:10248000103000E014301AB107682F43076002E0F3
:102490000768AF430760F0BD1AB1838A0B4383829C
:1024A00002E0838A8B4383827047028A4FF6F0737F
:1024B0001A400282028A0A430282704782894FF2DE
:1024C000FF731A40828182890A438281704721B159
:1024D000828942F00202828104E082894FF6FD7314
:1024E0001A4082817047028A4FF6DF731A400282D7
:1024F000028A0A430282704721B1028A42F4804272
:10250000028204E0028A4BF6FF731A40028270478F
:10251000C1F308028280704701468888C0F3080032
:102520007047818941F0010181817047028BD2B2ED
:102530000283028B42EA012202837047028B02F47B
:102540007F420283028B0A430283704721B1828A51
:1025500042F02002828204E0828A4FF6DF731A4042
:102560008282704721B1828A42F01002828204E0A6
:10257000828A4FF6EF731A408282704721B1828AB5
:1025800042F00802828204E0828A4FF6F7731A4012
:102590008282704721B1828942F40042828103E045
:1025A0008289C2F30E028281704721B1828A42F48D
:1025B0000062828204E0828A4FF2FF731A408282B4
:1025C0007047828A4FF6FB731A408282828A0A43DE
:1025D0008282704721B1828A42F00202828204E044
:1025E000828A4FF6FD731A408282704702460020AD
:1025F000B1F5007F00D100BF13880B4201D001204C
:1026000000E00020704701F40072B2F5007F00D1B5
:1026100000BFCA430280704770B502460024002301
:1026200000250020A1F510666A3E00D100BFC1F36D
:10263000421501F01F03012606FA03F3012D02D112
:102640009689334006E0022D02D1168A334001E01C
:10265000968A33400C12012606FA04F41688344098
:1026600013B10CB1012000E0002070BD10B50022B4
:102670000023A1F510646A3C00D100BF0A120124B6
:102680009440A3B2DC43048010BD00000038014038
:102690000044004000480040004C00400050004012
:1026A000E0B0A6A2D2E901311068D2684E935092F0
:1026B0004F914D902C22A5A13AA801F095FEAEA312
:1026C000D3E90020D3E90213CDE93813CDE9362050
:1026D0001422AD4905A801F087FE00BF00BF00BF6E
:1026E00000BF00BF00BF01F0D3F901F039FA4FF489
:1026F000E13000F0EBFE4FF4165000F0C5FF4FF450
:10270000165001F0FEFB00F002FA01F0CFFC1021A0
:102710009EA000F07BFFA2A002F07EF9A3A002F031
:102720007BF90AA94DA800F001FCAFA002F074F9F2
:10273000002511E0002408E004EB05100AAA115C52
:10274000ADA002F069F9601CC4B2102CF4DBACA09F
:1027500002F062F9681CC5B20A2DEBDDA8A002F0F8
:102760005BF9A8A002F058F9002406E045A8015D35
:10277000A1A002F051F9601CC4B2102CF6DB0024B9
:1027800008E045A8005D49A9095D884200D003E042
:10279000601CC4B2102CF4DB00BF102C03D09DA031
:1027A00002F03AF902E0A0A002F036F900F0FFFAD8
:1027B000A249087008460078012803D1A0A002F0C1
:1027C0002BF902E0A4A002F027F9302001F004FE6A
:1027D00001F0F8FD804601F0FFFD01F0F3FD074632
:1027E0003946A8A002F018F901F0ECFD0746394679
:1027F000A4A002F011F901F0E5FD07463946A1A0B9
:1028000002F00AF90020059006903A469FA105A81B
:1028100002F012F906E001F02BF806464FF4FA60D8
:1028200001F072F9002EF6D100BF85E001F0A5F9A4
:1028300001A801F029FDDDE90101CDE903019DF8C1
:1028400010009DF80F10CDE900109DF80E309DF896
:102850000D209DF80C108EA002F0DEF894A002F07E
:10286000DBF89AA002F0D8F800F046FA59A800F078
:10287000F0FA724908705AA800F0EBFA6F49087034
:102880005BA800F0E6FA6D4908705CA800F0E1FA78
:102890006A49087055A800F0DCFA6849087056A823
:1028A00000F0D7FA6549087057A800F0D2FA6349DA
:1028B000087058A800F0CDFA6049087051A800F0DF
:1028C000C8FA5E49087052A800F0C3FA5B49087064
:1028D00053A800F0BEFA5949087054A800F0B9FA9C
:1028E0005649087059AA59A90AA800F077FC55AAB8
:1028F00055A90AA800F072FC51AA51A90AA800F033
:102900006DFC01A801F0C0FCDDE90101CDE9030186
:102910004A48007840280FD15CAA5CA90AA800F0B8
:102920005DFC002406E05CA8015D33A002F074F8B1
:10293000601CC4B2102CF6DB78E700000F1571C9DB
:1029400047D9E8590CB7ADD6AF7F679801030005AA
:10295000000504010405007B0000020001070005DA
:102960000001010304050000000000000000000059
:102970000000000000000000FF0B844A0853BF7CE9
:102980006934AB4364148FB9B8570008CFB5CDB3E1
:10299000B3F5CABCBBAFCDEAB1CF0D0A0000000051
:1029A000496E697469617465640000000A2D2D2DFB
:1029B0002D2D2D2D2D2D2D2D2D2D2D2D2D2D2D2D47
:1029C0002D2D2D2D2D2D2D2D2D2D2D2D2D2D2D2D37
:1029D0002D2D2D2D2D2D2D2D2D2D2D2D2D2D2D2D27
:1029E0002D2D2D2D2D0A0000526F756E64204B6524
:1029F00079733A0A000000002532782000000000B8
:102A00000A000000506C61696E20746578743A0A9F
:102A1000000000000A444543525950542057524F79
:102A20004E470A0A000000000A44454352595054D8
:102A300020434F52524543540A0A00002800002008
:102A40000D0A2020204E5246D3EB4D4355C1ACBD5C
:102A5000D3B3C9B9A60D0A000D0A202020D5FDD494
:102A6000DABCECB2E24E5246D3EB4D4355CAC7B77F
:102A7000F1D5FDB3A3C1ACBDD3A1A3A1A3A1A30D67
:102A80000A0000002564200A000000002564000000
:102A9000706366383536332074696D65202564208F
:102AA00025642025642025642025640A0000000098
:102AB0000D0A20B4D3BBFAB6CB20BDF8C8EBBDD30A
:102AC000CAD5C4A3CABD0D0A000000000D200AD655
:102AD000F7BBFABDF8C8EBBDD3CAD5C4A3CABD00C5
:102AE000704700BFFEE700BFFEE700BFFEE700BF84
:102AF000FEE77047704770477047000001B502E07D
:102B00000098401E009000980028F9D108BD00B53B
:102B100087B001214FF48A70FEF7C2FA0121080341
:102B2000FEF7BEFAE020ADF8040001208DF80600A3
:102B300018208DF8070001A9DB48FDF7F9FD4FF4D7
:102B40000140ADF8040001208DF8060010208DF83A
:102B5000070001A9D548FDF7EBFD1020ADF80400F2
:102B600001208DF8060048208DF8070001A9D04803
:102B7000FDF7DEFD4FF40041CC48FDF784FE002058
:102B8000ADF808004FF48270ADF80A000020ADF8EF
:102B90000C00ADF80E00ADF810004FF40070ADF869
:102BA00012001820ADF814000020ADF81600072020
:102BB000ADF8180002A9BF48FEF700FB0121BD488F
:102BC000FEF7A1FB07B000BD10B5044600BF02210F
:102BD000B848FEF71CFC0028F9D02146B548FEF79E
:102BE000C3FB00BF0121B348FEF711FC0028F9D058
:102BF000B048FEF7BBFBC0B210BD70B505460C4631
:102C00004FF48071A948FDF740FE4FF40041A748FA
:102C1000FDF73BFE2846FFF7D7FF06462046FFF7A5
:102C2000D3FF4FF40041A148FDF72DFE304670BDA3
:102C300070B504464FF480719C48FDF726FE4FF4B2
:102C400000419A48FDF721FE2046FFF7BDFFFF2017
:102C5000FFF7BAFF05464FF400419448FDF713FE15
:102C6000284670BD2DE9F04107460D4616464FF443
:102C700080718E48FDF709FE4FF400418B48FDF747
:102C800004FE3846FFF7A0FF8046002405E0FF2041
:102C9000FFF79AFF2855601CC4B2B442F7DB4FF42B
:102CA00000418248FDF7EFFD4046BDE8F0812DE987
:102CB000F04107460C4615464FF480717B48FDF7FE
:102CC000E4FD4FF400417948FDF7DFFD3846FFF79A
:102CD0007BFF8046002605E014F8010BFFF774FF28
:102CE000701CC6B2AE42F7DB4FF400416F48FDF7EF
:102CF000CAFD4046BDE8F08110B54FF480716B48C5
:102D0000FDF7C3FD05226C492A20FFF7D0FF012102
:102D10002120FFF772FF01212220FFF76EFF2821FB
:102D20002520FFF76AFF04213120FFF766FF0F21FE
:102D30002620FFF762FF0F212020FFF75EFF4FF4F0
:102D400080715A48FDF79FFD10BD10B54FF480719A
:102D50005648FDF79AFD052258493020FFF7A7FF96
:102D6000052255492A20FFF7A2FF01212120FFF764
:102D700044FF01212220FFF740FF1A212420FFF702
:102D80003CFF28212520FFF738FF0F212620FFF7E1
:102D900034FF0E212020FFF730FF4FF480714348AD
:102DA000FDF771FD4FF6FF70FFF7A8FE10BD1FB5D0
:102DB00043A103C9CDE90201052202A93020FFF792
:102DC00076FF052269461020FFF74CFF002406E03D
:102DD0001DF80400C22800D003E0601CC4B2052C1A
:102DE000F6DB00BF052C02D1012004B010BD00208D
:102DF000FBE770B505464FF480712C48FDF745FDA3
:102E000004222946A020FFF752FF4FF48071274883
:102E1000FDF739FD00BF10212548FDF71AFD0028F8
:102E2000F9D10720FFF704FF044621462720FFF7CA
:102E3000E4FEFF21E120FFF7E0FE14F0100F01D0C7
:102E4000102070BD14F0200F01D02020F9E70020E1
:102E5000F7E770B505464FF480711448FDF713FD90
:102E600000BF10211248FDF7F4FC0028F9D14FF4FF
:102E700080710E48FDF709FD0720FFF7D9FE0446D3
:102E800021462720FFF7B9FE14F0400F0AD0042294
:102E900029466120FFF7E6FEFF21E220FFF7ADFEA5
:102EA000402070BD0020FCE70008014000200140E8
:102EB00000100140003001403900002034000020A3
:102EC000C2C2C2C2C2000000417842794270427A56
:102ED0004271427B427241738178827A8270817240
:102EE0008179827B82718173C17BC27AC273C2791C
:102EF000C272C278C271C1707047417B427A42731C
:102F000042794272427842714170817B8279827348
:102F10008171817A827882728170C178C279C2703F
:102F2000C27AC271C27BC272C1737047F8B50446DF
:102F3000002314E014F8235001F8015B9D006D1C80
:102F4000655D01F8015B9D00AD1C655D01F8015BED
:102F50009D00ED1C655D01F8015B5D1CEBB2042B6F
:102F6000E8DB081F002392E010F8016BFB4DAD5D1C
:102F70008DF8035010F8016BF84DAD5D8DF80050E1
:102F800010F8016BF54DAD5D8DF8015010F8016B37
:102F9000F24DAD5D8DF802509DF80050F04EF65C9C
:102FA00075408DF80050A1F1100212F8015B9DF8F8
:102FB0000060754001F8015B12F8015B9DF801604B
:102FC000754001F8015B12F8015B9DF802607540E5
:102FD00001F8015B12F8015B9DF80360754001F890
:102FE000015B10F8015B12F8017B7D4001F8015B89
:102FF00010F8015B12F8017B7D4001F8015B10F8CD
:10300000015B12F8017B7D4001F8015B10F8015B68
:1030100012F8017B7D4001F8015B10F8015B12F8AA
:10302000017B7D4001F8015B10F8015B12F8017B28
:103030007D4001F8015B10F8015B12F8017B7D40D7
:1030400001F8015B10F8015B12F8017B7D4001F88B
:10305000015B10F8015B12F8017B7D4001F8015B18
:1030600010F8015B12F8017B7D4001F8015B10F85C
:10307000015B12F8017B7D4001F8015B10F8015BF8
:1030800012F8017B7D4001F8015B5D1CEBB20A2B5D
:10309000FFF66AAFF8BD2DE9FF470646894615469B
:1030A000002407E016F8010B19F8041048402855D1
:1030B000601CC4B2102CF5DB4FF0010871E0002455
:1030C00006E0285DA549085C0DF80400601CC4B248
:1030D000102CF6DB6846FFF7F7FE002450E01DF8E1
:1030E0000400611C1DF801104840A11C1DF80110CE
:1030F0004840E11C1DF8011080EA01071DF804108A
:10310000621C1DF8022081EA020000F04AF91DF855
:103110000410484078402855611C1DF80110A21C7D
:103120001DF8022081EA020000F03BF9611C1DF845
:10313000011048407840611C6854A11C1DF8011022
:10314000E21C1DF8022081EA020000F02AF9A11C0D
:103150001DF8011048407840A11C6854E11C1DF87E
:1031600001101DF8042081EA020000F01AF9E11CA8
:103170001DF8011048407840E11C6854201DC4B27D
:10318000102CACDB002406E016F8010B295D48404A
:103190002855601CC4B2102CF6DB08F1010000F0C9
:1031A000FF08B8F10A0F8ADB002405E0285D6B49AF
:1031B000085C2855601CC4B2102CF7DB2846FFF7CA
:1031C00083FE002406E016F8010B295D48402855CF
:1031D000601CC4B2102CF6DBBDE8FF872DE9FF5F51
:1031E00007461546A037002405E0285D395D4840B4
:1031F0002855601CC4B2102CF7DB103F2846FFF79F
:103200007CFE002405E0285D5649085C2855601CBA
:10321000C4B2102CF7DB4FF0010AB2E0002406E044
:10322000285D395D48400DF80400601CC4B2102CC4
:10323000F6DB00248AE01DF80400611C1DF8011073
:103240004840A11C1DF801104840E11C1DF8011068
:1032500080EA01061DF80410621C1DF8022081EAB4
:10326000020000F09EF81DF80410714048402855F7
:10327000611C1DF80110A21C1DF8022081EA020049
:1032800000F08FF8611C1DF8011071404840611C6E
:103290006854A11C1DF80110E21C1DF8022081EAEF
:1032A000020000F07EF8A11C1DF80110714048409A
:1032B000A11C6854E11C1DF801101DF8042081EACE
:1032C000020000F06EF8E11C1DF80110714048404A
:1032D000E11C68541DF80410A21C1DF8022081EAAC
:1032E000020000F05EF8834600F05BF88046611C47
:1032F0001DF80110E21C1DF8022081EA020000F016
:1033000050F8834600F04DF8814688EA090000F045
:1033100048F80646285D86EA080148402855601CA2
:10332000285C86EA09014840611C6854A01C285C9E
:1033300086EA08014840A11C6854E01C285C86EA23
:1033400009014840E11C6854201DC4B2102CFFF64E
:1033500072AF2846FFF7D1FD00240BE0500000209B
:103360004600002050010020285D1349085C2855C4
:10337000601CC4B2102CF7DB103F0AF1010000F012
:10338000FF0ABAF10A0FFFF649AF002405E0285DF5
:10339000395D48402855601CC4B2102CF7DBBDE8ED
:1033A000FF9F014611F0800F03D01B2080EA4100EF
:1033B00000E04800C0B270475001002010B504463C
:1033C00044B10021CF48FEF71DFF0121CD48FEF793
:1033D00085FC03E00021CB48FEF780FC10BD10B552
:1033E00040F22551C848FFF717F908B3C648FFF760
:1033F00093F8C4B2C5480088B0F5806F12DA002196
:10340000C048FEF7FFFEC148008810B90120FFF751
:10341000D5FFBE4801880088401CBC4A1080BC48CB
:10342000445405E0B948008840F40040B74908809A
:1034300010BD7FB505460C4601210420FDF73DFE79
:10344000ADF80450ADF800400020ADF80600ADF82E
:1034500002006946AB48FEF7E5F801221146A9488B
:10346000FEF757FC1E208DF80C0001208DF80D0092
:1034700002208DF80E0001208DF80F0003A8FCF744
:1034800066FF7FBD70B58CB006460C46154601211F
:103490000846FDF7F8FD3046FCF7C2FF019402959F
:1034A00010200390002004900590802006900020BA
:1034B0000790089009904FF480500A9000200B90DC
:1034C00001A93046FDF74EF80CB070BD10B586B0BE
:1034D000044601210420FDF7E3FD01214804FDF726
:1034E000ECFD8948FEF7D8FE0420ADF8100003205B
:1034F0008DF8120018208DF8130004A98548FDF7F7
:1035000017F90820ADF8100004208DF8130004A965
:103510008048FDF70DF900940020ADF80400ADF8E7
:103520000600ADF80800ADF80C000C20ADF80A005C
:1035300069467548FEF7F3FE012280217248FEF7C6
:10354000ABFF754A7049091D7448FFF79BFF0121C5
:103550006D48FEF770FF012240F225516A48FEF7E0
:1035600076FF26208DF8140002208DF81500032028
:103570008DF8160001208DF8170005A8FCF7E7FE6E
:1035800041F61F4140F2DE30FFF753FF00205F4954
:103590000880FFF713FF06B010BD70B504460D4656
:1035A00000212046FDF709F829462046FDF71AF8C4
:1035B00001212046FDF701F870BD0FB438B505A80C
:1035C00000905548009A049901F04AFA00200090B2
:1035D00000BF534800680028FBD14F4800F03AFF75
:1035E00084B221464D48FFF7D8FF38BC5DF814FB84
:1035F00010B5044621464B48FEF78AFF00BF8021E4
:103600004848FEF7F3FF0028F9D010BD70B5054615
:103610000E46002404E0285DFFF7EAFF601C84B238
:10362000285D08B1B442F6DB70BD10B50121354804
:10363000FEF71DFE38B33548008840F4004033499A
:10364000088001212F48FEF723FE0020FFF7B6FE79
:103650002E480088C0F30E012D48FFF7D7FF3248EF
:10366000007880B9002029490988C1F30E01284A51
:103670005054264908802DA1104600F0D9FE10B103
:1036800001202C49087010BD10B586B004460121F8
:103690000420FDF705FD01218803FDF701FD214808
:1036A000FEF7FAFD4FF40070ADF8140003208DF81A
:1036B000160018208DF8170005A91648FDF738F8F0
:1036C0004FF48060ADF8140004208DF8170005A9B0
:1036D0001048FDF72DF801940020ADF80800ADF872
:1036E0000A00ADF80C00ADF810000C20ADF80E008B
:1036F00001A90C48FEF713FE01210A48FEF79BFEC4
:1037000006B010BD000800400044004050020020F8
:103710007806002000080140780200208000024066
:1037200084000240003801405202002052494E47B6
:10373000000000005302002010B504468B480088AA
:1037400010F4004F0ED0002088490988C1F30E0103
:10375000874A5054114687A001F05EF914B1002049
:103760008249088010BD70B5044600257F48008856
:1037700010F4004F0BD000207C490988C1F30E01E2
:103780007B4A50542146104600F052FE054628461A
:1037900070BD2DE9F04104460E4615460027002075
:1037A00072490880012074490870FF2C07D800BFB7
:1037B000724800680028FBD171490C8003E0214663
:1037C00070A0FFF7FAFEC6B1BDB10FE00A2000F00D
:1037D0009BF96648008810F4004F07D03046FFF789
:1037E000C2FF00B106E0002060490880681E80B278
:1037F0000500EBD100BF05B9012700205B49088017
:103800005D4908703846BDE8F08110B564225FA1BB
:103810005FA0FFF7BEFF38B164225CA15CA0FFF798
:10382000B8FF08B1FF2010BD4FF4C87259A15BA0CA
:10383000FFF7AFFF08B1FE20F5E74FF4C8725AA1B9
:103840005AA0FFF7A6FF88B15BA1494800F0F0FD40
:1038500060B9C8224DA159A0FFF79BFF20B9594874
:103860004349B1F80F100180FD20DCE70020DAE7C2
:1038700010B5FFF7CAFF044634B1FD2C13D0FE2C5F
:103880000CD0FF2C20D104E011214FA0FFF7BEFE89
:103890001BE01D2151A0FFF7B9FE16E00F2157A034
:1038A000FFF7B4FE11E0122158A0FFF7AFFE0C2184
:1038B0005BA0FFF7ABFE02214248FFF7A7FE022103
:1038C00056A0FFF7A3FE00E000BF00BF204610BDDA
:1038D00010B54FF4C8722DA155A0FFF75AFF08B1DB
:1038E000FB2010BD0020FCE730B589B004460D4632
:1038F000224650A101A801F09FF8642223A151A003
:10390000FFF747FF10B1FA2009B030BD64221FA1B4
:103910004FA0FFF73EFF08B1F920F5E764221BA195
:103920004FA0FFF736FF08B1F820EDE7642217A19A
:103930004EA0FFF72EFF08B1F720E5E7642251A162
:1039400001A8FFF726FF08B1F620DDE7294609A008
:10395000FFF733FE40F2DC524BA11A20FFF719FFAC
:1039600008B1F520D0E70020CEE70000500200208B
:1039700078060020257300005202002084000240D7
:103980000444004025730D0A000000004F4B000066
:1039900041540000524541445900000041542B431A
:1039A00050494E3F00000000302C310041542B4361
:1039B0005245473F00000000302C350041542B4356
:1039C000535100005402002047534DC4A3BFE9D710
:1039D000D4BCECB3C9B9A60D0A000000D3EB475321
:1039E0004DC4A3BFE9CEB4CDA8D1B6B3C9B9A6A37F
:1039F000ACC7EBB5C8B4FD0D0A000000C3BBBCECFE
:103A0000B2E2B5BD53494DBFA80D0A00D7A2B2E13D
:103A1000CDF8C2E7D6D0A1A3A1A3A1A30D0A0000AF
:103A2000B5B1C7B0D0C5BAC5D6B5A3BA00000000BD
:103A30004154410041542B434D47533D22257322AD
:103A40000000000041542B434D47463D310000002B
:103A500041542B435343533D2247534D2200000012
:103A600041542B435343413F0000000041542B433A
:103A7000534D503D31372C3136372C302C323430C9
:103A8000000000003E0000002B434D47533A000069
:103A900010B56FF00400FCF7A5FC2D4800682D4917
:103AA000B0FBF1F02C4908700846007800EB4001AB
:103AB000C1EBC0104FF6FF7101EAC0002749088032
:103AC00010BD0146244A12784A434FF0E0235A6160
:103AD00000229A611A46126942F001021A6100BF7F
:103AE0004FF0E022106910F0010F02D010F4803F77
:103AF000F6D04FF0E022126922F001024FF0E023ED
:103B00001A6100229A6170470146144A12884A439A
:103B10004FF0E0235A6100229A611A46126942F07E
:103B200001021A6100BF4FF0E022106910F0010F8E
:103B300002D010F4803FF6D04FF0E022126922F05C
:103B400001024FF0E0231A6100229A6170470000E1
:103B50000000002000127A00580200205A020020C3
:103B600010B54FF4A060FCF7EDFB10BD044603E078
:103B700021469EA000F050FFFAE72DE9FC41002607
:103B80009D4890F8500000287DD000209A4981F887
:103B900050009AA000F040FF974800F02DFF00BFB2
:103BA00066E046B99AA1944800F042FC04005DD159
:103BB0000120FFF7DBFF641C95A1204600F038FCD4
:103BC000050050D00A2E36D2DFE806F035050C127B
:103BD00019202735352E2A1B21468748523000F000
:103BE00003FC29E02A1B214601A800F0FDFB23E08D
:103BF0002A1B214680485D3000F0F6FB1CE02A1BA2
:103C000021467D48683000F0EFFB15E02A1B214675
:103C100079486A3000F0E8FB0EE02A1B214676481E
:103C2000763000F0E1FB07E02A1B2146724878302D
:103C300000F0DAFB00E000BF00BF2C4601206E4917
:103C400081F851009DF80400412803D1012081F83A
:103C50007F0007E09DF80400562803D10020664944
:103C600081F87F0002E00220FFF780FF701CC6B2DF
:103C7000092E96DD604890F8570030385E4991F87B
:103C80005610303900E05AE001EB810100EB4100B1
:103C900060494871584890F855003038564991F8B5
:103CA0005410303901EB810100EB41005949087192
:103CB000514890F8530030384F4991F8521030393C
:103CC00001EB810100EB41005249C8704A4890F86D
:103CD00079003038484991F87810303901EB81018A
:103CE00000EB41004B498870434890F87B00303826
:103CF000414991F87A10303901EB810100EB410024
:103D0000444948703C4890F87D0030383A4991F871
:103D10007C10303901EB810100EB41003D49087016
:103D20000846407909793B4FCDE90010FB78BA7815
:103D30007978387800F078FA37A000F06DFEBDE8A9
:103D4000FC8110B52C4890F8510000284CD0002080
:103D5000294981F8510035A000F05EFE2648523016
:103D600000F04AFE37A000F057FE37A000F054FEE6
:103D70002148783000F040FE32A000F04DFE1E4891
:103D800090F87F0000282CD000201B4981F87F008C
:103D900033A000F041FE18485D3000F02DFE29A050
:103DA00000F03AFE34A000F037FE1348683000F00F
:103DB00023FE24A000F030FE34A000F02DFE0E48BB
:103DC0006A3000F019FE1FA000F026FE35A000F0BA
:103DD00023FE0948763000F00FFE1AA000F01CFE0A
:103DE00002E035A000F018FE10BD00004552524F11
:103DF0005225640D0A000000780A00202A2A2A2A87
:103E00002A2A2A2A2A2A2A2A2A2A0D0A00000000F7
:103E10002C0000005C02002047505320CAB1BCE4D3
:103E2000D2D1C9E8D6C3200A0000000053617665EC
:103E30005F446174612E55544354696D65203D2083
:103E4000000000000D0A0000536176655F44617454
:103E5000612E55544344617465203D2000000000EC
:103E6000536176655F446174612E6C617469747529
:103E70006465203D20000000536176655F446174F5
:103E8000612E4E5F53203D20000000005361766597
:103E90005F446174612E6C6F6E6769747564652030
:103EA0003D200000536176655F446174612E455F7B
:103EB00057203D200000000047505320444154410A
:103EC000206973206E6F742075736566756C6C2144
:103ED0000D0A0000014600BF704700BF6D4A1288FE
:103EE00012F0400FFAD0C2B26A4B1B1D1A80704705
:103EF00010B5C821684800F090FA00206749088092
:103F000010BD10B586B0044601210820FDF7C8F8A1
:103F100001218804FDF7D1F84FF48060ADF814005A
:103F200018208DF8170003208DF8160005A95C48AD
:103F3000FCF7FEFB4FF40060ADF8140004208DF890
:103F4000170005A95648FCF7F3FB4FF4E060FCF7B7
:103F5000F9F927208DF8000000208DF801000120DC
:103F60008DF802008DF803006846FCF7F0F9019423
:103F70000020ADF80800ADF80A00ADF80C00ADF86F
:103F800010000C20ADF80E00012240F225514548EA
:103F9000FEF75DFA01A94348FEF7C1F9012240F29C
:103FA00025514048FEF753FA01213E48FEF743FAF7
:103FB000FFF79EFF06B010BD10B540F225513948FD
:103FC000FEF72AFB88B33748FEF7A6FAC4B2242CC2
:103FD00002D1002031490880304801880088401C07
:103FE0002E4A10802C4844540078242816D12A48A0
:103FF00000794D2812D12848407943280ED10A2C47
:104000000CD1104602882449274800F0EDF9012020
:10401000254981F850000020204908801F48008869
:10402000C82802DBC8201D49088010BD10B5044611
:104030002146194800F0FCF908B1012010BD00200C
:10404000FCE710B50020184981F8500081F85100B4
:1040500081F87F005021144800F0DFF912485230F7
:10406000002101604160018181720B30016041607B
:10407000018181725D38A0F868106A30016041608A
:1040800081606A38A0F87610783001608180817193
:1040900010BD000000380140F80A00206402002032
:1040A000000C014000480040780A002008B50121BA
:1040B0000820FCF7F5FF01214805FCF7FEFFC020B2
:1040C000ADF8000003208DF802001C208DF80300DD
:1040D0006946B748FCF72CFB08BD1FB50020ADF8BA
:1040E00004004BF6FF70ADF806000A20ADF808009A
:1040F0004FF48060ADF80A000001ADF80C00AD4847
:1041000000906946AC48FCF778FC0121AA48FCF70E
:10411000F2FC1FBD70B504460D4600BF4FF40031E0
:10412000A548FCF70FFE0028F8D10121A248FCF7B2
:1041300006FD00BFA149A048FCF7E2FD0028F9D028
:104140000022A2219C48FCF750FD00BF9C499A48E0
:10415000FCF7D6FD0028F9D021469748FCF73FFD33
:1041600000BF9749891C9448FCF7CAFD0028F8D085
:1041700029469148FCF733FD01218F48FCF7EBFC01
:1041800070BD70B5044601218B48FCF7D8FC00BF18
:104190008A498948FCF7B4FD0028F9D00022A22101
:1041A0008548FCF722FD00BF85498348FCF7A8FD40
:1041B0000028F9D021468048FCF711FD00BF804956
:1041C000891C7D48FCF79CFD0028F8D001217A4825
:1041D000FCF7B5FC00BF79497748FCF791FD002852
:1041E000F9D00122A3217448FCF7FFFC00BF7349FA
:1041F000491C7148FCF784FD0028F8D000BF6F49C6
:104200003F316D48FCF77CFD0028F8D06A48FCF788
:10421000E8FC054600216848FCF7A9FC0121664836
:10422000FCF799FC284670BD2DE9F04704460F467F
:1042300015461E46DDE90889FFF74FFF00210846B5
:10424000FFF768FF00210120FFF764FF49460220C5
:10425000FFF760FF41460320FFF75CFF3146042073
:10426000FFF758FF29460520FFF754FF394607207E
:10427000FFF750FF21460820FFF74CFF00210846BA
:10428000FFF748FFBDE8F0877CB505460220FFF741
:1042900078FF00F07F042046E21704EB127212113F
:1042A000A4EB02122146E31704EB13731B1103EB7B
:1042B000830302EB4304E0B28DF805000320FFF70F
:1042C00060FF00F07F042046E21704EB1272121127
:1042D000A4EB02122146E31704EB13731B1103EB4B
:1042E000830302EB4304E0B28DF804000420FFF7DF
:1042F00048FF00F03F042046E21704EB127212114F
:10430000A4EB02132146E21704EB1272121103EB25
:104310000214E0B28DF803000520FFF732FF00F031
:104320003F042046E21704EB12721211A4EB0212B2
:104330002146E31704EB13731B1103EB830302EB1A
:104340004304E0B28DF802000720FFF71AFF00F0E7
:104350001F042046E21704EB12721211A4EB0212A2
:104360002146E31704EB13731B1103EB830302EBEA
:104370004304E0B28DF801000820FFF702FF00F0CF
:104380001F042046E21704EB12721211A4EB021371
:104390002146E21704EB1272121103EB0214E0B291
:1043A0008DF8000000982860BDF80400A8807CBD4E
:1043B000000C0140801A0600005400400100030078
:1043C000820007000649074A0868504343F2390251
:1043D00010440860400870470149086070470000B9
:1043E000700200206D4EC64140EA01039B0703D0D6
:1043F00009E008C9121F08C0042AFAD203E011F824
:10440000013B00F8013B521EF9D27047D2B201E0E5
:1044100000F8012B491EFBD270470022F6E710B5C9
:1044200013460A4604461946FFF7F0FF204610BD22
:1044300030B505462A460B4612F8010B13F8014B1E
:1044400008B1A042F8D01CB1002802D06D1CF1E7E1
:10445000284630BD421C10F8011B0029FBD1801AF0
:10446000704730B50B46014600202022012409E0A8
:1044700021FA02F59D4205D303FA02F5491B04FA1D
:1044800002F52844151EA2F10102F1DC30BD2DE930
:10449000F05F0546002092469B46884606468146C8
:1044A00040241BE0284641464746224600F0F5F9E5
:1044B00053465A46C01A914110D311461846224617
:1044C00000F0DCF92D1A67EB01084F462246012067
:1044D000002100F0D3F917EB00094E41201EA4F192
:1044E0000104DFDC484631462A464346BDE8F09FDA
:1044F0002DE9FE4F804681EA0300C00F0C46009074
:1045000021F0004123F00045B8EB0200A94105D29B
:104510004046214690461C460B46024623F000408A
:10452000104304D14046214603B0BDE8F08F270D6B
:10453000C7F30A00C3F30A510290401A01904028C1
:1045400066DAC3F3130040F4801B0098924620B152
:104550000023D2EB030A63EB0B0B01985946C0F121
:104560004002504600F08AF906460D46504659462C
:10457000019A00F0A2F910EB08006141002487EADB
:10458000115284EAE7731A433BD0009A3AB3019A76
:10459000012A4FEA075210DC001B61EB02014FF0C9
:1045A000004202EA0752CDE90042001C41F58011A9
:1045B00032462B4600F0A0F9B6E7001B61EB020182
:1045C000001C41F5801300185B412018A2F500176C
:1045D00047EB030140EAD570B6196D4111E06D0853
:1045E0004FEA360645EAC0754FEA0752001B61EBF9
:1045F0000201001C41F5801149084FEA3000001902
:10460000514132462B4603B0BDE8F04F00F067B988
:104610000098012240000023D0EB020263EBE0731C
:10462000009821464FEAE074B8EB000061EB04010A
:10463000E9E783F000435BE781F0004158E72DE9AB
:10464000FE4F81EA030404F0004421F0004100948D
:104650004FF0000B23F0004350EA010402D052EA6D
:10466000030404D10020014603B0BDE8F08FC3F37A
:104670000A54C1F30A552C44A4F2F3340194A0FB6C
:104680000254C1F3130141F48011C3F3130343F443
:10469000801301FB024400FB034E840A970A44EA9C
:1046A000815447EA8357A4FB076802958D0A05FBEE
:1046B00007854FEA932C04FB0C542705029D4FEA13
:1046C000065847EA1637B5EB08056EEB070C870E60
:1046D000920E47EA811742EA8312A7FB0201B6EB6A
:1046E0000B0164EB00042B0D43EA0C335E1844EB22
:1046F0001C50DA465146E7FB0201C5F313044FEAAA
:104700000B3343EA14534FEA0432019C43EA060395
:10471000A4F10C040294009CCDE900B400F0ECF884
:10472000A2E72DE9F04D81EA030404F0004B21F0EB
:10473000004514464FF0000A23F0004150EA0502FC
:1047400020D054EA01021DD0C5F30A570246C5F332
:104750001303C1F31300C1F30A5640F4801543F468
:104760008013A7EB0608101BD64608F2FD3873EB42
:10477000050002D308F1010801E092185B41B8F18D
:10478000000F03DA00200146BDE8F08D00204FF451
:104790008011064684460EE0171B73EB050705D310
:1047A000121B63EB050306434CEA010C49084FEA70
:1047B000300092185B4150EA0107EDD152EA030044
:1047C00012D082EA040083EA0501084303D10022E3
:1047D0004FF0004308E0101BAB4102D2012200233E
:1047E00002E06FF0010253101AEB06004CEB085187
:1047F00010EB0A0041EB0B01BDE8F04D00F06FB883
:10480000C1F30A52C1F3130140F2FF3341F48011A6
:104810009A4202DA00200146704740F233439A423E
:10482000A2F2334202DC524200F037B800F026B860
:1048300030B5002904DB4FF00044404264EB010135
:10484000002B04DB4FF00044524264EB0303994217
:1048500008BF904230BD0000064C074D06E0E068FE
:1048600040F0010394E8070098471034AC42F6D3B7
:10487000FBF762FCCC570008EC570008202A04DB49
:10488000203A00FA02F1002070479140C2F1200363
:1048900020FA03F3194390407047202A04DB203AA2
:1048A00021FA02F00021704721FA02F3D040C2F150
:1048B00020029140084319467047202A06DBCB1797
:1048C000203A41FA02F043EAE07306E041FA02F3CB
:1048D000D040C2F12002914008431946704710B5FC
:1048E000002B08DA401C41F1000192185B411A4389
:1048F00001D120F0010010BD2DE9F04D92469B46FC
:1049000011B1B1FA81F202E0B0FA80F220329046A1
:10491000FFF7B4FF04460F4640EA0A0041EA0B01E4
:1049200053465A46084303D120463946BDE8F08D28
:10493000114653EA010015D0C8F140025046FFF776
:10494000ACFF05460E46504659464246FFF796FFD5
:10495000084301D0012000E00020054346EAE0764C
:104960002C4337430A984FEA4453A0EB08004FEA20
:10497000D4240A304FF0000244EA47544FEAD725C6
:1049800002D500200146D1E7010510196941DDE992
:10499000084500196941BDE8F04DA0E770B501EB8D
:1049A000020410F8015B15F0070301D110F8013B78
:1049B0002A1106D110F8012B03E010F8016B01F861
:1049C000016B5B1EF9D12B0705D40023521E0FD4B7
:1049D00001F8013BFAE710F8013B02F10202A1EBFA
:1049E000030303E013F8015B01F8015B521EF9D5E4
:1049F000A142D6D3002070BD0FB4054B10B503A95A
:104A0000044A029800F000FB10BC5DF814FB0000A3
:104A1000DB3E00086C0200200FB4054B10B503A963
:104A2000044A029800F0ECF810BC5DF814FB00009A
:104A3000DB3E00086C0200200FB4084B10B504A93F
:104A400002AA039800F0DCF8044602A9002000F056
:104A5000A9FE204610BC5DF814FB0000A557000815
:104A600037B514460846064B6A46214600F0CCFA94
:104A700004466946002000F09AFE20463EBD000034
:104A8000AF57000802E008C8121F08C1002AFAD177
:104A900070477047002001E001C1121F002AFBD1BE
:104AA000704700002DE9FF5FDDE90220010DDDF810
:104AB00038B0024310D10F9801244CA2012808D02D
:104AC000002100980F9BC0E90021C0E90243BDE826
:104AD000FF9F6FEA0B01F4E7A1F2FF3144F610509B
:104AE00041430D140F9801280ED0A5EB0B00401C7C
:104AF0004FF000043E4EDFF8FC90B0F1000AA046F3
:104B000005DACAF1000717E0CBF10000F0E707462D
:104B100012E0F80707D02246334640464946FFF7E1
:104B20008EFD804689462246334610461946FFF7D9
:104B300086FD04460E467F10002FEAD1DDE9020112
:104B4000BAF1000F42464B4602DAFFF778FD01E06A
:104B5000FFF7E7FD04460E460022274BFFF768FEED
:104B600003D84FF0FF30014607E00022234B2046D8
:104B70003146FFF7BDFCFFF743FE102409E0002C8F
:104B80000ADB0A220023FFF782FC019B30321A5510
:104B9000641E50EA0102F2D1641C019AC4F11103AF
:104BA00014440F9A012A09D00122084301D15B4520
:104BB0000FDD4FF0000205F101050DE0084303D1C0
:104BC000A3EB0B056D1E09E000204FF0110B0F90B9
:104BD00088E701DA00226D1E002A83D000980F9921
:104BE000C0E90231C0E9004571E700003000000073
:104BF000000024400000F03F0000F0430000E03FD0
:104C00002DE9FF4F8DB00F4605460026DEE1252831
:104C100074D100246D1CF149A246A14601222B78D3
:104C2000203B02FA03F0084202D004436D1CF6E771
:104C300028782A2810D06FF02F022878A0F13001B0
:104C4000092915D80AEB8A0102EB410144F002045C
:104C500000EB010A6D1CF0E757F804ABBAF1000F46
:104C600003DA44F40054CAF1000A44F002046D1C53
:104C700028782E2817D115F8010F44F004042A28AB
:104C80000ED06FF02F022878A0F1300109290AD840
:104C900009EB890102EB410100EB01096D1CF2E710
:104CA00057F8049B6D1C28786C280FD006DC4C2824
:104CB00017D068280DD06A2814D104E0742810D0C9
:104CC0007A280FD10DE044F400140AE044F4801473
:104CD00001E044F440146978814202D16D1C04F56E
:104CE00080146D1C2A786E2A20D00DDC632A33D004
:104CF00005DC002A6FD0582A12D1A2E011E0642A04
:104D00006AD0692A0CD167E0732A2FD004DC6F2A9D
:104D10006FD0702A04D199E0752A6BD0782A6AD0B6
:104D20001046DDE90F129047761C4EE1C4F30250A5
:104D3000022806D003280AD0042801CF0AD0066032
:104D400043E101CF4FEAE671C0E900613DE101CFE7
:104D500006803AE1067038E117F8040B8DF8000080
:104D600000208DF80100EB46012003E057F804BB5A
:104D70004FF0FF3061074FF0000102D40DE008F161
:104D80000101884649450FDA8045F8DB1BF8081019
:104D90000029F4D108E008F1010188468142FADBDC
:104DA0001BF808100029F6D1DDE90F23AAEB080053
:104DB0008146214600F0C6FC304400EB080604E0C2
:104DC000DDE90F121BF8010B9047B8F10108F7D28B
:104DD00021464846F4E0FDE00A21C4F302534FF0B7
:104DE000000B0891022B07D001CFC117032B09D06C
:104DF0000AE034E023E024E0FF1D27F00707F7E88E
:104E0000020105E000B2C117042B01D140B2C11765
:104E1000002907DA4FF0000CD0EB0C006CEB01011D
:104E20002D2302E0230504D52B238DF82430012304
:104E300003E0E30701D02023F7E7984650E00A217A
:104E40000EE010204FF0000B08900CE010214FF006
:104E5000000B44F004044FF00809089103E0082116
:104E60004FF0000B0891C4F30253022B04D001CF82
:104E70000021032B06D006E0FF1D27F00707F7E807
:104E8000020103E080B2042B00D1C0B24FF0000851
:104E9000230725D5702A2AD0DDF820C08CF0100C0D
:104EA0005CEA0B0C09D150EA010306D030238DF8DF
:104EB00024308DF8252002239846DDF820C08CF0A0
:104EC000080C5CEA0B0C0BD150EA010301D163071B
:104ED00006D530238DF824304FF00108A9F10109DF
:104EE000582A09D03EA20B9208AA0A9211E0402348
:104EF0008DF824300123DFE73EA2F4E75B46089AF1
:104F0000FFF7C5FA0B9B9B5C0A9AA2F101020A9279
:104F1000137050EA0102F1D10A98ADEB000000F1E4
:104F2000200B600702D524F4803401E04FF0010922
:104F3000D94502DDA9EB0B0000E0002000EB0B01DE
:104F400041440890AAEB010AE00306D4DDE90F23EF
:104F50002146504600F0F6FB0644002008E009A96F
:104F600011F80900DDE90F129047761C09F10100E4
:104F700081464045F3DBE0030CD5DDE90F232146F4
:104F8000504600F0DFFB064404E0DDE90F1230205C
:104F90009047761C0899481E08900029F5DC08E027
:104FA0000A980A990078491C0A91DDE90F12904786
:104FB000761CBBF10001ABF1010BF1DC2146504640
:104FC000DDE90F2300F098FB06446D1C28780028CB
:104FD0007FF41DAE11B03046BDE8F08F0928010006
:104FE000303132333435363738396162636465665F
:104FF0000000000030313233343536373839414221
:1050000043444546000000002DE9FF4F95B09B4604
:1050100089460646002512E2252878D10024761C10
:10502000F94A2746012105943378203B01FA03F021
:10503000104202D00443761CF6E730782A2811D0BB
:105040006FF02F033078A0F13002092A16D8059AA4
:1050500044F0020402EB820203EB42021044761C8D
:105060000590EFE759F8042B0592002A03DA504225
:1050700044F40054059044F00204761C30782E2845
:1050800016D116F8010F44F004042A280DD06FF051
:105090002F023078A0F13003092B09D807EB8703E2
:1050A00002EB4303C718761CF3E759F8047B761C20
:1050B00030786C280FD006DC4C2817D068280DD02B
:1050C0006A2814D104E0742810D07A280FD10DE09A
:1050D00044F400140AE044F4801401E044F4401461
:1050E0007278824202D1761C04F58014761C3078E6
:1050F00066280BD013DC582877D009DC002875D03F
:105100004528F6D04628F4D047281AD19FE118E068
:10511000632835D0642879D0652812D197E17028AA
:1051200073D008DC6728F1D069286FD06E280DD0C5
:105130006F2806D1B5E073282CD0752875D0782853
:1051400074D05A46179990476D1C76E1C4F302500B
:10515000022809D003280DD0D9F8001004280DD05A
:105160000D6009F1040968E1D9F80010EA17C1E9F6
:105170000052F6E7D9F800100D80F2E70D70F0E765
:1051800019F8041B8DF8001000208DF80100EA4684
:10519000012003E059F804AB4FF0FF3061074FF0F6
:1051A000000102D40DE008F101018846B9420FDA8E
:1051B0008045F8DB1AF808100029F4D108E008F15E
:1051C000010188468142FADB1AF808100029F6D15D
:1051D00005985B46A0EB080721463846179A00F071
:1051E000C9FA284400EB080507E04DE02BE10DE08B
:1051F0001AF8010B5A4617999047B8F10108F7D2EF
:105200005B4621463846179A14E142E00A22009292
:10521000C4F302524FF0000A022A08D059F804CB16
:10522000032A4FEAEC710AD00DE029E02AE009F1E7
:10523000070121F00702F2E802C1914609E00FFAE6
:105240008CFC4FEAEC71042A03D14FFA8CFC4FEA34
:10525000EC71002907DA0A460021DCF1000C61EB51
:1052600002012D2202E0220504D52B228DF8042014
:10527000012203E0E20701D02022F7E7904653E045
:105280000A2102E010220DE010214FF0000A0091E7
:105290000BE010224FF0000A44F0040408270092AB
:1052A00003E008224FF0000A0092C4F30252022ADF
:1052B00005D059F804CB0021032A08D009E009F1F0
:1052C000070121F00702F2E802C1914605E01FFA4A
:1052D0008CFC042A01D10CF0FF0C4FF000082207CF
:1052E00022D5702827D0009B83F0100353EA0A03CD
:1052F00009D15CEA010206D030228DF804208DF835
:10530000050002229046009B83F0080353EA0A033B
:105310000AD15CEA010201D1620705D530228DF87D
:1053200004204FF001087F1E582809D037A00390B1
:105330000EA8029013E040228DF804200122E1E73C
:1053400037A0F4E753466046009AFFF7A0F884467A
:105350000398825C0298A0F10100029002705CEA5E
:105360000100EFD1029806A9A1EB000000F1200A8C
:10537000600702D524F4803400E00127574502DDA0
:10538000A7EB0A0000E0002000EB0A01009005985E
:105390004144A0EB01000590E00306D45B462146A2
:1053A000179A059800F0E6F90544002706E001A8E1
:1053B0005A46C05D179990476D1C7F1C4745F6DB28
:1053C000E0030CD55B462146179A059800F0D2F908
:1053D000054404E030205A46179990476D1C009907
:1053E000481E00900029F5DC08E0029802995A4610
:1053F0000078491C0291179990476D1CBAF1000181
:10540000AAF1010AF1DC6BE10928010030313233E5
:1054100034353637383961626364656600000000F0
:1054200030313233343536373839414243444546DA
:105430000000000000F073F9054406F10106307821
:1054400000287FF4E9AD19B02846BDE8F08F620767
:1054500000D4062709F1070222F0070CFCE802231A
:10546000E14603F000485FEA080C02D00FF27C2C02
:105470000DE05FEA045C02D50FF2742C07E05FEAEE
:10548000C47C02D00FF26C2C01E0AFF2700C4FF034
:10549000FF3823F00043CDF850C065280CD006DC5F
:1054A000452809D046281DD047283ED13EE0662831
:1054B00018D0672839D139E00021112F01DB1120E4
:1054C00000E0781CCDE9000106A90EA8FFF7EAFA72
:1054D000DDE90F010E9A03910021009207F1010A04
:1054E00004914EE04FF000400097CDE9011006A96D
:1054F0000EA8FFF7D7FADDE90F0203920E9B119970
:105500000022DDF80CA00093049219B907F1010103
:1055100000EB010AB7EB0A0004D4C0F1FF3007F139
:10552000010A0490AAEB0700019046E0012F00DA7F
:1055300001270021112F01DD112000E03846CDE9BF
:10554000000106A90EA8FFF7ADFADDE90F010E9ADA
:105550000391002104910092BA4621070CD40399CB
:10556000514500DA8A46BAF1010F05DD009AAAF129
:105570000101515C302908D0B84202DA10F1040F61
:1055800006DA0121CDE9011017E0AAF10101E9E7EE
:10559000002805DC049901440491AAEB000102E013
:1055A000411C514500DD8A460499A0EB010000F141
:1055B000010001904FF000400290200704D40198B0
:1055C000504501DBCDF8048000208DF84F00029893
:1055D0000DF14F07B0F1004F25D02B200E9002980F
:1055E0004FF0020800280CDA404202902D200E9065
:1055F00007E00A210298FEF734FF3031029007F8E5
:10560000011DB8F10001A8F10108F2DC02980028A0
:10561000EFD1791E0E980870307800F0200040F02D
:10562000450007F8020D12A8A0EB070000F10708DB
:105630001498007800B1012000EB0A01019801EBF9
:10564000E07105984144A0EB0100A0F10100059034
:10565000E00306D45B462146179A059800F08AF8C5
:1056600005441498007820B15A461799904705F1DF
:105670000105E00323D55B462146179A059800F003
:1056800079F805441BE00498002807DBDDE90301F5
:10569000884203DD0098405C179901E0179930209B
:1056A0005A46904704986D1C401C04900198401E77
:1056B000019004D12E205A46179990476D1CBAF1DB
:1056C0000001AAF1010ADEDC05E017F8010B5A46D9
:1056D000179990476D1CB8F10001A8F10108F4DC9E
:1056E0005B462146179A0598A4E600002D000000AD
:1056F0002B000000200000002DE9F04104460025A9
:105700001E461746880405D406E039462020B047D7
:1057100005F10105641EF8D52846BDE8F0812DE9A4
:10572000F041044600251E461746880405D406E0CD
:1057300039462020B04705F10105641EF8D52846FA
:10574000BDE8F0812DE9F041044600251E46904653
:10575000C80301D5302700E02027880405D506E0DE
:1057600041463846B04705F10105641EF8D5284684
:10577000BDE8F0812DE9F041044600251E46904623
:10578000C80301D5302700E02027880405D506E0AE
:1057900041463846B04705F10105641EF8D5284654
:1057A000BDE8F0810A68531C0B60107070470A68EE
:1057B000531C0B60107070476162636465000000E9
:1057C000000000000000000000000000EC5700088E
:1057D00000000020740200009C4900081C5A0008C8
:1057E000740200204C0D0000944A00081184A24A63
:1057F00004680901020304060708090C6910C502C0
:105800000406083E344310100105893A105B040871
:10581000102040801B36637C777BF26B6FC53001B4
:10582000672BFED7AB76CA82C97DFA5947F0ADD453
:10583000A2AF9CA472C0B7FD9326363FF7CC34A527
:10584000E5F171D8311504C723C31896059A0712DC
:1058500080E2EB27B27509832C1A1B6E5AA0523BCB
:10586000D6B329E32F8453D100FF00ED20FCB15BB8
:105870006ACBBE394A4C58CFD0EFAAFB434D338593
:1058800045F9027F503C9FA851A3408F929D38F567
:10589000BCB6DA2110FFF3D2CD0C13EC5F9744179E
:1058A000C4A77E3D645D197360814FDC222A908815
:1058B00046EEB814DE5E0BDBE0323A0A4906245CA1
:1058C000C2D3AC629195E479E7C8376D8DD54EA906
:1058D0006C56F4EA657AAE08BA78252E1CA6B4C6D2
:1058E000E8DD741F4BBD8B8A703EB5664803F60E2B
:1058F000613557B986C11D9EE1F8981169D98E941A
:105900009B1E87E9CE5528DF8CA1890DBFE6426832
:1059100041992D0FB054BB1652096AD53036A538BF
:10592000BF40A39E81F3D7FB7CE339829B2FFF8787
:10593000348E4344C4DEE9CB547B9432A6C2233D6B
:10594000EE4C950B42FAC34E082EA16628D924B21C
:10595000765BA2496D8BD12572F8F664866898163D
:10596000D4A45CCC5D65B6926C1013704850FDED0C
:10597000B9DA5E154657A78D9D8490D8AB009D245B
:105980008CBCD30AF7E45805B8B34506D02C1E8F5B
:10599000CA3F0F02C1AFBD0301138A6B3A91114197
:1059A0004F67DCEA97F2CFCEF0B4E67396AC742280
:1059B000E7AD3585E2F937E81C75DF6E47F11A71FE
:1059C0001D29C5896FB7620EAA18BE1BFC563E4B37
:1059D000C6D279209ADBC0FE78CD5AF41FDDA833F9
:1059E0008807C731B11210592780EC5F60517FA939
:1059F00019B54A0D2DE57A9F93C99CEFA0E03B4D68
:105A0000AE2AF5B0C8EBBB3C83539961172B047EDB
:0C5A1000BA77D626E169146355210C7D9D
:0400000508000131BD
:00000001FF
